:1000000036C021C34FC04EC04DC04CC093C14AC082
:1000100049C048C047C046C045C044C043C042C0B4
:1000200041C040C03FC00902120001010080C80960
:10003000040000000000000012011001FF00000891
:10004000C016DD0500010102000118036300610014
:100050006D002E006300680061007300730069008A
:10006000730008037A0038003000040309041124E7
:100070001FBECFE5D4E0DEBFCDBF10E0A0E6B0E00C
:10008000EAECF8E002C005900D92A836B107D9F766
:1000900011E0A8E6B0E001C01D92A03CB107E1F775
:1000A000FFD311C4ADCF13BE12BE85E083BF089548
:1000B00082B7843680F08091680090916900019643
:1000C000893C910548F4909369008093680013BEC1
:1000D00012BE85E083BF08951092690010926800F7
:1000E00010926C0010926B0010926A00F0CF109288
:1000F00069001092680010926C0010926B001092D0
:100100006A0008950F931F93CF93DF931F92CDB78B
:10011000DEB78C01FC018081811104C081818930AE
:1001200009F44AC0109269001092680080916C0036
:10013000811114C0F801808180936C0081113AC054
:1001400010926B0010926A0066E770E0F8018181FE
:100150000F90DF91CF911F910F9192C090E0961771
:1001600018F580916C00282F815080936C00222319
:10017000D9F020916B0006C0482F815080936C000D
:10018000442391F030E0F801E90FF11D4081F901BD
:10019000EA58FF4F40832F5F3F4F2F713327209343
:1001A0006B009F5F961740F30F90DF91CF911F91E7
:1001B0000F91089591E0D3CF698354D06981B2CF74
:1001C000282F10926900109268006623B9F0809180
:1001D0006A00322FA22FB92FE82FF0E0EA58FF4F24
:1001E00080818D9380916A0090E001968F719927AC
:1001F00080936A002A2F231B261770F3089582B379
:10020000877E82BB81B3886181BBA998A19A08953A
:10021000811106C090E082B3877F892B82BB08954D
:1002200098E082B3877F892B82BB0895811106C035
:1002300090E082B38F7E892B82BB089590E182B3D8
:100240008F7E892B82BB0895811106C090E085B313
:100250008D7F892B85BB089592E085B38D7F892B97
:1002600085BB0895939906C098E082B3877F892B58
:1002700082BB089590E082B3877F892B82BB08956B
:10028000CF93DF9300D000D000D0CDB7DEB787305A
:10029000D9F158F5813019F08230F1F4FFCF86E0C2
:1002A000E2E6F0E0DE01119601900D928A95E1F709
:1002B000398120E080E090E0FB01E80FF91F3083F6
:1002C0002F5F822F90E0E1E0F0E0EC0FFD1FE80FE0
:1002D000F91F30813111F0CF26960FB6F894DEBFAA
:1002E0000FBECDBFDF91CF9108958830C1F0893026
:1002F00099F7FB01808126960FB6F894DEBF0FBEFA
:10030000CDBFDF91CF91A0CFFB01808126960FB6A4
:10031000F894DEBF0FBECDBFDF91CF9179CFFB0147
:10032000808126960FB6F894DEBF0FBECDBFDF9159
:10033000CF917CCF1F920F920FB60F9211242F9363
:100340003F934F935F936F937F938F939F93AF935D
:10035000BF93EF93FF931DBC1CBC84DFFF91EF9113
:10036000BF91AF919F918F917F916F915F914F91CD
:100370003F912F910F900FBE0F901F901895FC0189
:100380008DE690E09093A5018093A4018081807612
:1003900039F09181977F81E0913009F080E081957B
:1003A0000895CF93C62F0CDF8C2FCF910895AADE2E
:1003B00081E00895CF93DF936091A601635067FDBC
:1003C00013C08091A301CCE0D0E0C81BD109C65571
:1003D000DE4F8091A2018D3209F457C080917500E3
:1003E00087FD9BC01092A6018091610084FF40C0F0
:1003F000609160006F3F09F43BC0693008F46FC042
:100400006850609360008091960198E889278093F6
:10041000960168E08091750087FD1DC04091A401A0
:100420005091A50186FF70C0A7E9B1E0FA01962FAF
:1004300084918D9331969150D9F72FEF260F30E0AC
:100440002F5F3F4F240F351F3093A5012093A40148
:10045000C4E0C60F4FC087E991E0A3DF682F893061
:1004600008F4A0C08FEF80936000CEE1C0936100DC
:1004700094E186B3837031F49150D9F71092A701BB
:100480001092A101DF91CF910895683009F0AACFB1
:1004900083EC809396018AE5809361001092750049
:1004A0008881807609F043C08A8110929F019981EA
:1004B000911147C01092A0012FE931E082E0309302
:1004C000A5012093A4018F3FA9F19F81911104C040
:1004D0009E81981708F4892F8093600083CF109233
:1004E00060008091960198E88927809396016111B8
:1004F00091CFC4E087E991E0A2D0CC3009F4B6CF27
:100500008FEF80936000B2CFDA01E7E9F1E0962F38
:100510008D9181939150E1F790CFCE0148DF8F3FCD
:10052000F9F0882309F45ECF109260005BCFCE0112
:1005300026DFC9CF988197FD1DC090E89093750084
:10054000CBCF953089F0963009F19830D9F09930B9
:1005500099F081E09A3009F080E02FE931E0AFCFE7
:100560008EE1809361003ECF8093A7012FE931E0B7
:1005700080E0A5CF8E81E1CF8093A9012FE931E002
:1005800080E09DCF29EA31E081E099CF9B819130D5
:10059000F1F09230A1F0933041F080E090E490933C
:1005A000750091CFC4E0C80FA5CF811118C08AE6AD
:1005B00090E09093A5018093A40184E0EFCF86E2C0
:1005C00090E09093A5018093A40182E1E7CF88E3B6
:1005D00090E09093A5018093A40182E1DFCF813068
:1005E00051F08230D1F68AE490E09093A501809397
:1005F000A40188E1D3CF82E690E09093A501809397
:10060000A40188E0CBCF85B7826085BF8BB78064BB
:100610008BBF0895A82FB92F80E090E041E050EA09
:10062000609530E009C02D9182279795879510F04D
:1006300084279527305EC8F36F5FA8F30895EADF3B
:100640008D939D930895CF93CFB7CF93C395B09BD0
:10065000E9F7B09B09C0B09B07C0B09B05C0B09B39
:1006600003C0B09B01C0A1C0DF93C091A301DD27EF
:10067000C655DE4FB09B02C0DF91EBCF2F930F9397
:100680001F9306B32FEF00FB20F94F933F9316B350
:100690004FEF012700FB21F93BE031C04E7F012FD6
:1006A00016B3216028C0102F4D7F2260000006B3D2
:1006B00029C04B7F2460012F000016B32BC016B356
:1006C000477F28602AC04F7E06B320612CC04F7D33
:1006D00016B320622FC04F7B06B3206432C042277E
:1006E00006B349934FEF0000102710FB20F916B313
:1006F0001370C9F1297F91F2012700FB21F906B39C
:10070000237F89F2315058F1102710FB22F916B3DC
:10071000277E79F2012700FB23F92F7C81F206B3B3
:10072000102710FB24F92F7971F200C016B30127AE
:1007300000FB25F92F7359F200C006B3102710FBF8
:1007400026F9223040F200C016B3012700FB27F93A
:10075000243028F64F77206816B30000F9CF10E454
:100760001ABF002717C03B503195C31BD04010E47F
:100770001ABF0881033CE9F00B34D9F02091A101A4
:100780001981110F1213EDCF093641F10D3211F01D
:10079000013E39F70093A8013F914F911F910F91AE
:1007A0002F91DF91CAB7C6FD51CFCF91CFBFCF9167
:1007B00018952091A801222379F31091A601112305
:1007C00011F5343012F13093A6012093A20110915B
:1007D000A3013BE0311B3093A30117C00091A60198
:1007E00001308CF40AE53091610034FD10C00093B3
:1007F0006100C6E9D1E00FC02795A8F45150A9F4D3
:10080000220F0000F9CF4AE503C042ED01C0432F9B
:10081000C4E1D0E032E017B31360C09A17BB08B34D
:1008200020E413E05F93012756E008BB279520F4EE
:10083000515021F4220FF9CF012756E000003B5A16
:1008400008BBD0F2279528F4515029F4220F00005C
:10085000F9CF012756E0279508BB20F4515021F429
:10086000220FF9CF012756E02991332308BB21F647
:100870000C7F1091A701110FC651D04008BB11F099
:100880001093A10110E41ABF016017B31C7F402F21
:100890004C7F5F9100C000C008BB17BB48BB7CCF3A
:1008A0007894ADDC1FBC1EBC1DBC1CBC1BBC1ABCA0
:1008B00080E189BF1DBC1CBC86EC9DE29BBD8ABD4E
:0A08C00085E08EBDFFCFF894FFCF56
:0808CA00FF5A302E312E3000E0
:00000001FF
