:1000000042C0B1C45BC05AC059C058C0DFC156C05D
:1000100055C054C053C052C051C050C04FC04EC054
:100020004DC04CC04BC05BC174C14AC149C148C13D
:1000300047C17EC181C184C187C133C14CC10403A2
:10004000090408037A0038003000180363006100D7
:100050006D002E006300680061007300730069008A
:10006000730012011001FF000008C016DD05000139
:10007000010200010902120001010080C809040008
:1000800000000000000011241FBECFE5D4E0DEBF59
:10009000CDBF10E0A0E6B0E0E4ECFBE002C00590CC
:1000A0000D92A037B107D9F711E0A0E7B0E001C089
:1000B0001D92A83DB107E1F767D182C5A1CF13BE5C
:1000C00012BE85E083BF089582B78436D0F0809158
:1000D0007300909174000196909374008093730064
:1000E000893C910550F010927400109273001092A8
:1000F0007000109271001092720013BE12BE85E063
:1001000083BF0895109274001092730010927000D3
:1001100010927100109272000895482F109274008E
:10012000109273006623B9F09C01D901E09172002E
:10013000F0E0E257FF4F80818D93E09172008E2FA7
:1001400090E001968F719070E82F809372008A2F53
:10015000841B861768F30895CF93DF93EC01109208
:1001600074001092730080917000882359F190E020
:10017000961728F530917000832F3150309370001E
:100180008823E9F0492F9091710006C0832F3150E8
:1001900030937000882399F0892F90E0DC01A257FA
:1001A000BF4FFE01E40FF11D20812C9301968F714A
:1001B0009070982F809371004F5F461738F3DF914E
:1001C000CF910895888180937000882389F41092DC
:1001D00074001092730010927000109271001092CF
:1001E000720089816EE870E046D0DF91CF9108956A
:1001F00091E0BECF82B3877E82BB81B3886181BB31
:10020000A998A19A0895882331F490E082B3877F5A
:10021000982B92BB089598E082B3877F982B92BB6E
:100220000895882331F490E082B38F7E982B92BB9F
:10023000089590E182B38F7E982B92BB0895882316
:1002400031F490E085B38D7F982B95BB089592E0B3
:1002500085B38D7F982B95BB0895939906C098E040
:1002600082B3877F982B92BB089590E082B3877FFB
:10027000982B92BB08950F931F93DF93CF93CDB725
:10028000DEB72E970FB6F894DEBF0FBECDBF8B0141
:1002900090E0FC013197EC30F10590F4ED5EFF4FFA
:1002A0000994FB01918180E02081820F911D21D171
:1002B000F801938180E02281820F911D1FD123D10B
:1002C0002E960FB6F894DEBF0FBECDBFCF91DF9153
:1002D0001F910F910895DFD1F8018083F1CFDE01E6
:1002E0001196E0E6F0E086E001900D928150E1F792
:1002F0008981D801FE0132969E012E5E3F4F8C937C
:1003000080818823E9F211963196E217F307B9F755
:10031000D7CFDE011796E6E6F0E088E001900D9277
:100320008150E1F78F81F8018083882349F2FFCF64
:10033000FB01808168DFC4CFFB01808172DFC0CF09
:10034000FB0180817CDFBCCFFB018081BED0B8CFB8
:10035000FC0185E790E09093BD018093BC01808112
:10036000807629F08181813021F0893011F080E0A0
:1003700008958FEF0895F0DE81E008951F93162F02
:10038000CCDE812F1F910895F89434DF88D080D17E
:100390002EE088E190E00FB6F894A89581BD0FBEDD
:1003A00021BD91D18D98959825E948EB5BE0CA0174
:1003B0000197F1F7A8952150D0F781DE8D9A959A93
:1003C000789488D1A89580DE6BD1FBCF1F920F92D5
:1003D0000FB60F9211242F938F939F93EF93FF9358
:1003E00080918B008230C9F180918B00813081F047
:1003F00085B38F7C85BB1DBC1CBC1EBCFF91EF91DF
:100400009F918F912F910F900FBE0F901F90189575
:1004100025B380918A0090E0FC01EE0FFF1FE80FEA
:10042000F91FED57FF4F8081822385BB80918A00A1
:100430008F5F80938A0090918A008091890098173D
:10044000F8F01DBC1CBC86EA9EE09BBD8ABD83E023
:100450008EBD82E080938B00D1CF81E080938B00B2
:1004600085B3806385BB1DBC1CBC809184009091CA
:1004700085009BBD8ABD83E08EBD10928A00BECFF1
:1004800080918A0090E0FC01EE0FFF1FE80FF91F3A
:10049000ED57FF4F818192819BBD8ABDAFCF85B360
:1004A0008F7C85BB84B3806384BB90E190937D0097
:1004B00080E28093800010928B001FBC1EBC1DBC8C
:1004C0001CBC1BBC1ABC99BF08951DBC1CBC1EBC27
:1004D000882319F410928B00089582E080938B009A
:1004E0001DBC1CBC86EA9EE09BBD8ABD83E08EBD20
:1004F000089590937F0080937E00089590938200EA
:10050000809381000895DF93CF9300D00F92CDB7F1
:10051000DEB760918B001DBC1CBC1EBC80E18093CB
:100520007D0080E280938000A3E8B0E0EDE7F0E09A
:1005300083E001900D928150E1F7A6E8B0E0E0E899
:10054000F0E083E001900D928150E1F7209184006A
:1005500030918500809187009091880082179307E1
:10056000E0F49E012F5F3F4FD901E3E8F0E083E024
:1005700001900D928150E1F7E3E8F0E0DF0113967E
:1005800083E00D9001928150E1F7A6E8B0E0F90117
:1005900083E001900D928150E1F710928900409123
:1005A00083008091890090E0FC01EE0FFF1FE80FAF
:1005B000F91FED57FF4F2181328180918400909186
:1005C00085002817390728F4809189008F5F809370
:1005D00089008091890090E0FC01EE0FFF1FE80F79
:1005E000F91FED57FF4F408350918600542B8091A7
:1005F000890090E0FC01EE0FFF1FE80FF91FED5797
:10060000FF4F2181328180918700909188002817C7
:10061000390728F4809189008F5F80938900809149
:10062000890090E0FC01EE0FFF1FE80FF91FED5766
:10063000FF4F5083809189008F5F80938900809164
:100640008900882391F020E0822F90E0FC01EE0FDA
:10065000FF1FE80FF91FED57FF4F808180958083C2
:100660002F5F80918900281778F3662319F082E0C4
:1006700080938B001DBC1CBC86EA9EE09BBD8ABD9E
:1006800083E08EBD0F900F900F90CF91DF91089572
:10069000AB98A398089580918C0010928C000895D7
:1006A0001F9383B390E0182F187083FD91E0892F7A
:1006B000AADD90E0111191E080918C00892B80934C
:1006C0008C001F91089585B7826085BF8BB78064C9
:1006D0008BBF08951F93CF93DF936091BE0163504A
:1006E00067FD13C08091BB01CCE0D0E0C81BD109ED
:1006F000CE53DE4F8091BA018D3209F462C08091F1
:100700008D0087FD84C01092BE0180916E0084FF31
:100710004AC060916F006F3F09F445C0693070F1C5
:10072000685060936F008091AE0198E889278093AC
:10073000AE0168E080918D0087FD8BC02091BC01E7
:100740003091BD0186FF6DC0AFEAB1E080E090E07E
:10075000F901E80FF91FE491ED9301966817C1F7CD
:100760006150862F90E06F5F0196820F931F9093E8
:10077000BD018093BC01162F1C5F0BC010926F004F
:100780008091AE0198E889278093AE01662391F6A7
:1007900014E08FEA91E0E3D01C3019F08FEF8093E2
:1007A0006F0010936E0094E186B3837031F4915022
:1007B000D9F71092BF011092B901DF91CF911F912B
:1007C0000895683009F09FCF83EC8093AE018AE5ED
:1007D00080936E0010928D008881807659F59A8101
:1007E0001092B7018981882309F043C01092B801A3
:1007F00022E087EB91E09093BD018093BC018F8153
:10080000882319F49E81921708F1922F1FC0CE0100
:10081000B2DD8F3F51F1882309F475CF10926F003C
:1008200072CF962FD901EFEAF1E08D91819391502B
:10083000E1F796CFCE018CDD282F8F3F01F788811D
:1008400087FD25C09FEF80E880938D0090936F0017
:100850005ACF8FEA91E092DD682F893008F453C0B7
:100860008FEF80936F001EE19CCF8EE180936E002E
:100870004ACF853071F0863091F0883031F189307F
:1008800061F18A3031F120E087EB91E0B4CF9E81B5
:10089000DACF9093BF0120E087EB91E0ACCF8B8162
:1008A000813049F18230F9F0833029F020E080E492
:1008B00080938D00A4CF992349F58EE390E0909327
:1008C000BD018093BC0124E0F2CF21E081EC91E0F6
:1008D00092CF21E087EB91E08ECF9093C10120E091
:1008E00087EB91E088CF84E790E09093BD018093FF
:1008F000BC0122E1DCCF82E690E09093BD018093C1
:10090000BC0122E1D4CF182F1C5F43CF913051F0AE
:10091000923061F68AE490E09093BD018093BC012F
:1009200028E1C5CF82E490E09093BD018093BC01A3
:1009300028E0BDCFA82FB92F80E090E041E050EA39
:10094000609530E009C02D9182279795879510F02A
:1009500084279527305EC8F36F5FA8F30895EADF18
:100960008D939D930895CF93CFB7CF93C395B09BAD
:10097000E9F7B09B09C0B09B07C0B09B05C0B09B16
:1009800003C0B09B01C0A1C0DF93C091BB01DD27B4
:10099000CE53DE4FB09B02C0DF91EBCF2F930F936E
:1009A0001F9306B32FEF00FB20F94F933F9316B32D
:1009B0004FEF012700FB21F93BE031C04E7F012FB3
:1009C00016B3216028C0102F4D7F2260000006B3AF
:1009D00029C04B7F2460012F000016B32BC016B333
:1009E000477F28602AC04F7E06B320612CC04F7D10
:1009F00016B320622FC04F7B06B3206432C042275B
:100A000006B349934FEF0000102710FB20F916B3EF
:100A10001370C9F1297F91F2012700FB21F906B378
:100A2000237F89F2315058F1102710FB22F916B3B9
:100A3000277E79F2012700FB23F92F7C81F206B390
:100A4000102710FB24F92F7971F200C016B301278B
:100A500000FB25F92F7359F200C006B3102710FBD5
:100A600026F9223040F200C016B3012700FB27F917
:100A7000243028F64F77206816B30000F9CF10E431
:100A80001ABF002717C03B503195C31BD04010E45C
:100A90001ABF0881033CE9F00B34D9F02091B90169
:100AA0001981110F1213EDCF093641F10D3211F0FA
:100AB000013E39F70093C0013F914F911F910F9173
:100AC0002F91DF91CAB7C6FD51CFCF91CFBFCF9144
:100AD00018952091C001222379F31091BE011123B2
:100AE00011F5343012F13093BE012093BA01109108
:100AF000BB013BE0311B3093BB0117C00091BE012D
:100B000001308CF40AE530916E0034FD10C0009382
:100B10006E00CEEAD1E00FC02795A8F45150A9F499
:100B2000220F0000F9CF4AE503C042ED01C0432F78
:100B3000C4E1D0E032E017B31360C09A17BB08B32A
:100B400020E413E05F93012756E008BB279520F4CB
:100B5000515021F4220FF9CF012756E000003B5AF3
:100B600008BBD0F2279528F4515029F4220F000039
:100B7000F9CF012756E0279508BB20F4515021F406
:100B8000220FF9CF012756E02991332308BB21F624
:100B90000C7F1091BF01110FC651D04008BB11F05E
:100BA0001093B90110E41ABF016017B31C7F402FE6
:100BB0004C7F5F9100C000C008BB17BB48BB7CCF17
:040BC000F894FFCFD7
:100BC400302E312E300063686173736973005AFFED
:00000001FF
