:1000000036C095C44FC04EC04DC04CC0CBC24AC0D4
:1000100049C048C047C046C045C044C043C042C0B4
:1000200041C040C03FC00403090408037A003800FF
:1000300030001803630061006D002E00630068004B
:100040006100730073006900730012011001FF006A
:100050000008C016DD0500010102000109021200BE
:1000600001010080C8090400000000000000112404
:100070001FBECFE5D4E0DEBFCDBF10E0A0E6B0E00C
:10008000ECE8FBE002C005900D92A037B107D9F76C
:1000900011E0A0E7B0E001C01D92A73DB107E1F774
:1000A0006DD172C5ADCF13BE12BE85E083BF08957A
:1000B00082B78436D0F080917300909174000196DD
:1000C0009093740080937300893C910550F01092D6
:1000D00074001092730010927000109271001092D0
:1000E000720013BE12BE85E083BF089510927400A3
:1000F00010927300109270001092710010927200B2
:100100000895482F10927400109273006623B9F07E
:100110009C01D901E0917200F0E0E357FF4F80812C
:100120008D93E09172008E2F90E001968F71907008
:10013000E82F809372008A2F841B861768F3089536
:10014000CF93DF93EC0110927400109273008091B2
:100150007000882359F190E0961728F530917000CF
:10016000832F3150309370008823E9F0492F90910C
:10017000710006C0832F315030937000882399F0AE
:10018000892F90E0DC01A357BF4FFE01E40FF11D62
:1001900020812C9301968F719070982F809371001D
:1001A0004F5F461738F3DF91CF9108958881809390
:1001B0007000882389F410927400109273001092DA
:1001C0007000109271001092720089816DE870E0E9
:1001D00046D0DF91CF91089591E0BECF82B3877E64
:1001E00082BB81B3886181BBA998A19A08958823B5
:1001F00031F490E082B3877F982B92BB089598E00A
:1002000082B3877F982B92BB0895882331F490E0C6
:1002100082B38F7E982B92BB089590E182B38F7E3C
:10022000982B92BB0895882331F490E085B38D7F9D
:10023000982B95BB089592E085B38D7F982B95BB45
:100240000895939906C098E082B3877F982B92BB5C
:10025000089590E082B3877F982B92BB08950F9307
:100260001F93DF93CF93CDB7DEB72E970FB6F894D9
:10027000DEBF0FBECDBF8B01883009F444C089308A
:1002800040F08A30E1F18A30A8F4FB018081CBDFB5
:1002900006C0823029F18730F9F08130C1F12E9605
:1002A0000FB6F894DEBF0FBECDBFCF91DF911F9187
:1002B0000F9108958B3099F7FB01918180E02081A7
:1002C000820F911DA0D0F801938180E02281820FDE
:1002D000911D9ED0A2D0E3CFFB01808188DFDFCFCC
:1002E000DE011796E0E6F0E088E001900D92815083
:1002F000E1F78F81F8018083882389F2FFCFFB012A
:1003000080816DD0CCCFFB0180817FDFC8CFDE0143
:100310001196E8E6F0E086E001900D928150E1F759
:100320008981D801FE0132969E012E5E3F4F8C934B
:100330008081882309F4B3CF11963196E217F30731
:10034000B1F7ADCFFC0185E790E09093BC018093BD
:10035000BB018081807629F08181813021F0893054
:1003600011F080E008958FEF0895EADE81E00895AE
:100370001F93162FC6DE812F1F910895F8942EDF4C
:1003800018D02EE088E190E00FB6F894A89581BDD2
:100390000FBE21BD7CD18D98959885E9A895815097
:1003A000E8F781DE8D9A959A789478D1A89580DEC9
:1003B000FCCF85B38F7C85BB84B3806384BB90E125
:1003C00090937D0080E28093800010928B001FBC90
:1003D0001EBC1DBC1CBC1BBC1ABC99BF08951DBC17
:1003E0001CBC1EBC882319F410928B00089582E077
:1003F00080938B001DBC1CBC86EA9EE09BBD8ABD21
:1004000083E08EBD089590937F0080937E000895D1
:1004100090938200809381000895DF93CF9300D062
:100420000F92CDB7DEB760918B001DBC1CBC1EBC0B
:1004300080E180937D0080E280938000A3E8B0E0BB
:10044000EDE7F0E083E001900D928150E1F7A6E83E
:10045000B0E0E0E8F0E083E001900D928150E1F738
:1004600020918400309185008091870090918800D0
:1004700082179307E0F49E012F5F3F4FD901E3E815
:10048000F0E083E001900D928150E1F7E3E8F0E0C5
:10049000DF01139683E00D9001928150E1F7A6E809
:1004A000B0E0F90183E001900D928150E1F71092E4
:1004B0008900409183008091890090E0FC01EE0F5B
:1004C000FF1FE80FF91FED57FF4F21813281809107
:1004D0008400909185002817390728F480918900BD
:1004E0008F5F809389008091890090E0FC01EE0F7E
:1004F000FF1FE80FF91FED57FF4F40835091860013
:10050000542B8091890090E0FC01EE0FFF1FE80F53
:10051000F91FED57FF4F2181328180918700909123
:1005200088002817390728F4809189008F5F80930D
:1005300089008091890090E0FC01EE0FFF1FE80F19
:10054000F91FED57FF4F5083809189008F5F809393
:10055000890080918900882391F020E0822F90E02B
:10056000FC01EE0FFF1FE80FF91FED57FF4F8081D1
:10057000809580832F5F80918900281778F3662308
:1005800019F082E080938B001DBC1CBC86EA9EE0C3
:100590009BBD8ABD83E08EBD0F900F900F90CF91D1
:1005A000DF9108951F920F920FB60F9211242F938F
:1005B0003F934F935F936F937F938F939F93AF93EB
:1005C000BF93EF93FF9380918B008230F1F1809184
:1005D0008B008130A9F01DBC1CBC1EBC32DEFF911B
:1005E000EF91BF91AF919F918F917F916F915F91AB
:1005F0004F913F912F910F900FBE0F901F90189524
:1006000025B380918A0090E0FC01EE0FFF1FE80FF8
:10061000F91FED57FF4F8081822385BB80918A00AF
:100620008F5F80938A0090918A008091890098174B
:10063000F8F01DBC1CBC86EA9EE09BBD8ABD83E031
:100640008EBD82E080938B00C9CF81E080938B00C8
:1006500085B3806385BB1DBC1CBC809184009091D8
:1006600085009BBD8ABD83E08EBD10928A00B6CF07
:1006700080918A0090E0FC01EE0FFF1FE80FF91F48
:10068000ED57FF4F818192819BBD8ABDA7CF85B772
:10069000826085BF8BB780648BBF08951F93CF9313
:1006A000DF936091BD01635067FD13C08091BA0173
:1006B000CCE0D0E0C81BD109CF53DE4F8091B90107
:1006C0008D3209F462C080918C0087FD84C0109245
:1006D000BD0180916E0084FF4AC060916F006F3F42
:1006E00009F445C0693070F1685060936F008091E3
:1006F000AD0198E889278093AD0168E080918C0076
:1007000087FD8BC02091BB013091BC0186FF6DC07D
:10071000AEEAB1E080E090E0F901E80FF91FE49162
:10072000ED9301966817C1F76150862F90E06F5FD7
:100730000196820F931F9093BC018093BB01162FEB
:100740001C5F0BC010926F008091AD0198E8892763
:100750008093AD01662391F614E08EEA91E0E3D038
:100760001C3019F08FEF80936F0010936E0094E1AE
:1007700086B3837031F49150D9F71092BE01109274
:10078000B801DF91CF911F910895683009F09FCF94
:1007900083EC8093AD018AE580936E0010928C000B
:1007A0008881807659F59A811092B60189818823D3
:1007B00009F043C01092B70122E086EB91E09093DC
:1007C000BC018093BB018F81882319F49E8192170D
:1007D00008F1922F1FC0CE01C8DD8F3F51F1882351
:1007E00009F475CF10926F0072CF962FD901EEEAFF
:1007F000F1E08D9181939150E1F796CFCE01A2DD8A
:10080000282F8F3F01F7888187FD25C09FEF80E863
:1008100080938C0090936F005ACF8EEA91E0A8DD10
:10082000682F893008F453C08FEF80936F001EE16A
:100830009CCF8EE180936E004ACF853071F0863078
:1008400091F0883031F1893061F18A3031F120E066
:1008500086EB91E0B4CF9E81DACF9093BE0120E089
:1008600086EB91E0ACCF8B81813049F18230F9F099
:10087000833029F020E080E480938C00A4CF99237A
:1008800049F586E290E09093BC018093BB0124E09F
:10089000F2CF21E080EC91E092CF21E086EB91E075
:1008A0008ECF9093C00120E086EB91E088CF8CE55D
:1008B00090E09093BC018093BB0122E1DCCF8AE4FD
:1008C00090E09093BC018093BB0122E1D4CF182F1C
:1008D0001C5F43CF913051F0923061F682E390E09B
:1008E0009093BC018093BB0128E1C5CF8AE290E0E0
:1008F0009093BC018093BB0128E0BDCFA82FB92FF6
:1009000080E090E041E050EA609530E009C02D9130
:1009100082279795879510F084279527305EC8F336
:100920006F5FA8F30895EADF8D939D930895CF93A9
:10093000CFB7CF93C395B09BE9F7B09B09C0B09BED
:1009400007C0B09B05C0B09B03C0B09B01C0A1C055
:10095000DF93C091BA01DD27CF53DE4FB09B02C0B9
:10096000DF91EBCF2F930F931F9306B32FEF00FB75
:1009700020F94F933F9316B34FEF012700FB21F966
:100980003BE031C04E7F012F16B3216028C0102FED
:100990004D7F2260000006B329C04B7F2460012FE9
:1009A000000016B32BC016B3477F28602AC04F7EC5
:1009B00006B320612CC04F7D16B320622FC04F7B41
:1009C00006B3206432C0422706B349934FEF0000BC
:1009D000102710FB20F916B31370C9F1297F91F28B
:1009E000012700FB21F906B3237F89F2315058F12A
:1009F000102710FB22F916B3277E79F2012700FB9E
:100A000023F92F7C81F206B3102710FB24F92F79EC
:100A100071F200C016B3012700FB25F92F7359F2BC
:100A200000C006B3102710FB26F9223040F200C0A8
:100A300016B3012700FB27F9243028F64F772068EA
:100A400016B30000F9CF10E41ABF002717C03B50BF
:100A50003195C31BD04010E41ABF0881033CE9F074
:100A60000B34D9F02091B8011981110F1213EDCF79
:100A7000093641F10D3211F0013E39F70093BF0103
:100A80003F914F911F910F912F91DF91CAB7C6FDF2
:100A900051CFCF91CFBFCF9118952091BF01222385
:100AA00079F31091BD01112311F5343012F1309317
:100AB000BD012093B9011091BA013BE0311B309385
:100AC000BA0117C00091BD0101308CF40AE53091E4
:100AD0006E0034FD10C000936E00CDEAD1E00FC06F
:100AE0002795A8F45150A9F4220F0000F9CF4AE548
:100AF00003C042ED01C0432FC4E1D0E032E017B3A0
:100B00001360C09A17BB08B320E413E05F9301277A
:100B100056E008BB279520F4515021F4220FF9CF5D
:100B2000012756E000003B5A08BBD0F2279528F475
:100B3000515029F4220F0000F9CF012756E02795E4
:100B400008BB20F4515021F4220FF9CF012756E0C1
:100B50002991332308BB21F60C7F1091BE01110FA0
:100B6000C651D04008BB11F01093B80110E41ABF71
:100B7000016017B31C7F402F4C7F5F9100C000C005
:0C0B800008BB17BB48BB7CCFF894FFCF2C
:100B8C006368617373697300302E312E30005AFF25
:00000001FF
