:1000000041C0A1C45AC059C058C057C0ECC155C066
:1000100054C053C052C051C050C04FC04EC04DC05C
:100020004CC04BC04AC0A6C1A4C144C143C142C1D7
:1000300041C192C184C176C168C14AC1090212009E
:1000400001010080C8090400000000000000120146
:100050001001FF000008C016DD05000101020001CB
:100060001803630061006D002E00630068006100EA
:10007000730073006900730008037A0038003000D1
:100080000403090411241FBECFE5D4E0DEBFCDBFB9
:1000900010E0A0E6B0E0E8EDFBE002C005900D92B4
:1000A000A836B107D9F711E0A8E6B0E001C01D926B
:1000B000AF3CB107E1F774D58DC5A2CF13BE12BE18
:1000C00085E083BF089582B7843680F08091680010
:1000D000909169000196893C910548F490936900DC
:1000E0008093680013BE12BE85E083BF089510920E
:1000F00069001092680010926C0010926B001092D0
:100100006A00F0CF109269001092680010926C00A3
:1001100010926B0010926A0008950F931F93CF9373
:10012000DF931F92CDB7DEB78C01FC018081811176
:1001300004C08181893009F449C01092690010928D
:10014000680050916C00511114C0F8015081509317
:100150006C00511139C010926B0010926A0065E872
:1001600070E0F80181810F90DF91CF911F910F9185
:1001700091C090E0961710F58FEF850F80936C007B
:1001800020916B00590F561B07C04FEF480F40934B
:100190006C00882399F0842F30E0F801E90FF11DFD
:1001A0004081F901EB57FF4F40832F5F3F4F2F7185
:1001B000332720936B009F5F8513E7CF0F90DF916C
:1001C000CF911F910F91089591E0D4CF698354D0BE
:1001D0006981B3CF282F10926900109268006623BE
:1001E000B9F080916A00322FA22FB92FE82FF0E0EA
:1001F000EB57FF4F80818D9380916A0090E00196CC
:100200008F71992780936A002A2F231B261770F37A
:10021000089582B3877E82BB81B3886181BBA99830
:10022000A19A0895811106C090E082B3877F892B3F
:1002300082BB089598E082B3877F892B82BB0895A3
:10024000811106C090E082B38F7E892B82BB089516
:1002500090E182B38F7E892B82BB0895811106C005
:1002600090E085B38D7F892B85BB089592E085B39F
:100270008D7F892B85BB0895939906C098E082B342
:10028000877F892B82BB089590E082B3877F892B7B
:1002900082BB08950F931F93CF93DF9300D000D0BC
:1002A00000D0CDB7DEB78B0190E0FC013197EB3089
:1002B000F10558F026960FB6F894DEBF0FBECDBFFD
:1002C000DF91CF911F910F910895ED5EFF4F09943B
:1002D000FB01818190E0982F88272081820F911D5A
:1002E00021D1F801838190E0982F88272281820F05
:1002F000911D1DD126960FB6F894DEBF0FBECDBF5F
:10030000DF91CF911F910F9117C1FB01808126963C
:100310000FB6F894DEBF0FBECDBFDF91CF911F9116
:100320000F91DBC0FB01808126960FB6F894DEBFEB
:100330000FBECDBFDF91CF911F910F918FCFFB01EA
:10034000808126960FB6F894DEBF0FBECDBFDF9139
:10035000CF911F910F9174CFFB01808126960FB62C
:10036000F894DEBF0FBECDBFDF91CF911F910F91EB
:1003700059CFFFCF86E0E2E6F0E0DE011196019072
:100380000D928A95E1F7398120E080E090E0F80154
:10039000E80FF91F30832F5F822F90E0E1E0F0E05B
:1003A000EC0FFD1FE80FF91F30813111F0CF82CF24
:1003B000FC018DE690E09093B4018093B3018081BD
:1003C000807639F09181977F81E0913009F080E06B
:1003D00081950895CF93C62FFDDE8C2FCF91089580
:1003E0009CDE81E008951F920F920FB60F921124A8
:1003F0002F933F938F939F93EF93FF9320917500DB
:10040000213009F180917500823059F0FF91EF9110
:100410009F918F913F912F910F900FBE0F901F9042
:10042000189521E02093750085B3806385BB1DBCC2
:100430001CBC8091790090917A009BBD8ABD2EBD35
:1004400010927600E3CF35B38091760090E0FC0106
:10045000EE0FFF1FE80FF91FE858FF4F808183233D
:1004600085BB809176008F5F8093760090917600B7
:1004700080917700981758F01DBC1CBC8BE790E06A
:100480009BBD8ABD2EBD82E080937500BFCF809159
:10049000760090E0FC01EE0FFF1FE80FF91FE8580F
:1004A000FF4F818192819BBD8ABDB0CF85B38F7C88
:1004B00085BB84B3806384BB80E180937E0080E24F
:1004C00080938100109275001FBC1EBC1DBC1CBC1B
:1004D0001BBC1ABC84E089BF0895CF93C82F8091BC
:1004E0007500813031F4E6D0EEDD909175009130E9
:1004F000D1F31EBC1DBC1CBCC11107C010927500FD
:1005000085B38F7C85BBCF91089582E08093750081
:100510001DBC1CBC8BE790E09BBD8ABD81E08EBDFD
:10052000CF9108959093800080937F0008959093D9
:100530008300809382000895CF93C09175008091CD
:100540007500813031F4B6D0BEDD80917500813008
:10055000D1F31EBC80E180937E0080E28093810015
:1005600080917E0090917F00A09180008093780020
:1005700090937900A0937A002091790030917A00CD
:1005800080917C0090917D0082179307C0F4809148
:10059000780090917900A0917A0020917B003091B1
:1005A0007C0040917D002093780030937900409347
:1005B0007A0080937B0090937C00A0937D00109242
:1005C00077008091770090E0FC01EE0FFF1FE80FAD
:1005D000F91FE858FF4F8181928120917900309175
:1005E0007A008217930708F057C0809177008F5FD9
:1005F0008093770040E08091770090E0FC01EE0F5F
:10060000FF1FE80FF91FE858FF4F218132818091C9
:100610007C0090917D0028173907C0F120917B0064
:10062000242B8091770090E0FC01EE0FFF1FE80F74
:10063000F91FE858FF4F2083809177008F5F8093E8
:10064000770080917700882391F020E0822F90E05E
:10065000FC01EE0FFF1FE80FF91FE858FF4F8081E4
:10066000809580832F5F80917700281778F3CC23C3
:1006700019F082E0809375001DBC1CBC8BE790E0F4
:100680009BBD8ABD81E08EBDCF910895809177009A
:100690008F5F80937700D0CF409178008091770072
:1006A00090E0FC01EE0FFF1FE80FF91FE858FF4F25
:1006B0004083A1CFCF93DF936091B501635067FD75
:1006C00013C08091B201CCE0D0E0C81BD109C7545F
:1006D000DE4F8091B1018D3209F457C080918400C2
:1006E00087FD9BC01092B5018091610084FF40C0DE
:1006F000609160006F3F09F43BC0693008F46FC03F
:100700006850609360008091A50198E889278093E4
:10071000A50168E08091840087FD1DC04091B30170
:100720005091B40186FF70C0A6EAB1E0FA01962F9D
:1007300084918D9331969150D9F72FEF260F30E0A9
:100740002F5F3F4F240F351F3093B4012093B30127
:10075000C4E0C60F4FC086EA91E03CDE682F8930C6
:1007600008F4A0C08FEF80936000CEE1C0936100D9
:1007700094E186B3837031F49150D9F71092B601A9
:100780001092B001DF91CF910895683009F0AACF9F
:1007900083EC8093A5018AE5809361001092840028
:1007A0008881807609F043C08A811092AE019981D8
:1007B000911147C01092AF012EEA31E082E03093F0
:1007C000B4012093B3018F3FA9F19F81911104C01F
:1007D0009E81981708F4892F8093600083CF109230
:1007E00060008091A50198E889278093A501611197
:1007F00091CFC4E086EA91E0A2D0CC3009F4B6CF24
:100800008FEF80936000B2CFDA01E6EAF1E0962F35
:100810008D9181939150E1F790CFCE01E1DD8F3F33
:10082000F9F0882309F45ECF109260005BCFCE010F
:10083000BFDDC9CF988197FD1DC090E890938400DB
:10084000CBCF953089F0963009F19830D9F09930B6
:1008500099F081E09A3009F080E02EEA31E0AFCFE4
:100860008EE1809361003ECF8093B6012EEA31E0A5
:1008700080E0A5CF8E81E1CF8093B8012EEA31E0F0
:1008800080E09DCF28EB31E081E099CF9B819130D2
:10089000F1F09230A1F0933041F080E090E4909339
:1008A000840091CFC4E0C80FA5CF811118C080E8A3
:1008B00090E09093B4018093B30184E0EFCF8CE398
:1008C00090E09093B4018093B30182E1E7CF8EE48E
:1008D00090E09093B4018093B30182E1DFCF813047
:1008E00051F08230D1F680E690E09093B40180938D
:1008F000B30188E1D3CF88E790E09093B40180936F
:10090000B30188E0CBCF85B7826085BF8BB78064A9
:100910008BBF0895A82FB92F80E090E041E050EA06
:10092000609530E009C02D9182279795879510F04A
:1009300084279527305EC8F36F5FA8F30895EADF38
:100940008D939D930895CF93CFB7CF93C395B09BCD
:10095000E9F7B09B09C0B09B07C0B09B05C0B09B36
:1009600003C0B09B01C0A1C0DF93C091B201DD27DD
:10097000C754DE4FB09B02C0DF91EBCF2F930F9394
:100980001F9306B32FEF00FB20F94F933F9316B34D
:100990004FEF012700FB21F93BE031C04E7F012FD3
:1009A00016B3216028C0102F4D7F2260000006B3CF
:1009B00029C04B7F2460012F000016B32BC016B353
:1009C000477F28602AC04F7E06B320612CC04F7D30
:1009D00016B320622FC04F7B06B3206432C042277B
:1009E00006B349934FEF0000102710FB20F916B310
:1009F0001370C9F1297F91F2012700FB21F906B399
:100A0000237F89F2315058F1102710FB22F916B3D9
:100A1000277E79F2012700FB23F92F7C81F206B3B0
:100A2000102710FB24F92F7971F200C016B30127AB
:100A300000FB25F92F7359F200C006B3102710FBF5
:100A400026F9223040F200C016B3012700FB27F937
:100A5000243028F64F77206816B30000F9CF10E451
:100A60001ABF002717C03B503195C31BD04010E47C
:100A70001ABF0881033CE9F00B34D9F02091B00192
:100A80001981110F1213EDCF093641F10D3211F01A
:100A9000013E39F70093B7013F914F911F910F919C
:100AA0002F91DF91CAB7C6FD51CFCF91CFBFCF9164
:100AB00018952091B701222379F31091B5011123E4
:100AC00011F5343012F13093B5012093B10110913A
:100AD000B2013BE0311B3093B20117C00091B50168
:100AE00001308CF40AE53091610034FD10C00093B0
:100AF0006100C5EAD1E00FC02795A8F45150A9F4D0
:100B0000220F0000F9CF4AE503C042ED01C0432F98
:100B1000C4E1D0E032E017B31360C09A17BB08B34A
:100B200020E413E05F93012756E008BB279520F4EB
:100B3000515021F4220FF9CF012756E000003B5A13
:100B400008BBD0F2279528F4515029F4220F000059
:100B5000F9CF012756E0279508BB20F4515021F426
:100B6000220FF9CF012756E02991332308BB21F644
:100B70000C7F1091B601110FC651D04008BB11F087
:100B80001093B00110E41ABF016017B31C7F402F0F
:100B90004C7F5F9100C000C008BB17BB48BB7CCF37
:100BA000F89437DB2EE088E190E00FB6F894A89532
:100BB00081BD0FBE21BDA7DE8D98959886E9A895C9
:100BC0008150E9F77BDA8D9A959A789473DDA89530
:080BD0007ADAFCCFF894FFCFA4
:080BD800FF5A302E312E3000CF
:00000001FF
