:1000000036C078C44FC04EC04DC04CC01CC24AC0A0
:1000100049C048C047C046C045C044C043C042C0B4
:1000200041C040C03FC00403090408037A003800FF
:1000300030001803630061006D002E00630068004B
:100040006100730073006900730012011001FF006A
:100050000008C016DD0500010102000109021200BE
:1000600001010080C8090400000000000000112404
:100070001FBECFE5D4E0DEBFCDBF10E0A0E6B0E00C
:10008000E2E5FBE002C005900D92A037B107D9F779
:1000900011E0A0E7B0E001C01D92A63DB107E1F775
:1000A000B7D155C5ADCF13BE12BE85E083BF08954D
:1000B00082B78436D0F080917300909174000196DD
:1000C0009093740080937300893C910550F01092D6
:1000D00074001092730010927000109271001092D0
:1000E000720013BE12BE85E083BF089510927400A3
:1000F00010927300109270001092710010927200B2
:100100000895482F10927400109273006623B9F07E
:100110009C01D901E0917200F0E0E457FF4F80812B
:100120008D93E09172008E2F90E001968F71907008
:10013000E82F809372008A2F841B861768F3089536
:100140001F93CF93DF93EC01162F8881882321F42E
:100150008981893009F44DC01092740010927300A7
:1001600080917000882361F190E0911728F530911B
:100170007000832F3150309370008823E9F0492FAD
:100180009091710006C0832F315030937000882306
:1001900099F0892F90E0DC01A457BF4FFE01E40FD6
:1001A000F11D20812C9301968F719070982F809370
:1001B00071004F5F411738F3DF91CF911F91089580
:1001C000888180937000882391F4109274001092BB
:1001D0007300109270001092710010927200898169
:1001E0006CE870E049D0DF91CF911F91089591E0C4
:1001F000BCCF34D0B1CF82B3877E82BB81B388615C
:1002000081BBA998A19A0895882331F490E082B324
:10021000877F982B92BB089598E082B3877F982BB5
:1002200092BB0895882331F490E082B38F7E982B9F
:1002300092BB089590E182B38F7E982B92BB089574
:10024000882331F490E085B38D7F982B95BB08957A
:1002500092E085B38D7F982B95BB0895939906C046
:1002600098E082B3877F982B92BB089590E082B389
:10027000877F982B92BB08950F931F93DF93CF93A3
:10028000CDB7DEB72E970FB6F894DEBF0FBECDBF49
:100290008B01883009F444C0893040F08A30E1F1A4
:1002A0008A30A8F4FB018081CBDF06C0823029F1BF
:1002B0008730F9F08130C1F12E960FB6F894DEBF89
:1002C0000FBECDBFCF91DF911F910F9108958B305D
:1002D00099F7FB01918180E02081820F911DEBD085
:1002E000F801938180E02281820F911DE9D0EDD049
:1002F000E3CFFB01808188DFDFCFDE011796E0E6E8
:10030000F0E088E001900D928150E1F78F81F801D3
:100310008083882389F2FFCFFB018081B5D0CCCFC9
:10032000FB0180817FDFC8CFDE011196E8E6F0E0B7
:1003300086E001900D928150E1F78981F801808378
:100340008A81882309F4B8CF81838B81882309F4BB
:10035000B3CF82838C81882309F4AECF83838D81D0
:10036000882309F4A9CF84838E81882309F4A4CF3C
:1003700085838F81882309F49FCF8683888588238E
:1003800009F49ACF87838985882309F495CF8087DC
:100390008A85882309F490CF81878B85882309F487
:1003A0008BCF82878C85882309F486CF83878D85C0
:1003B000882309F481CF84878E85882309F47CCF34
:1003C00085878F85882309F477CF86878889882356
:1003D00009F472CF878770CFFC0185E790E0909396
:1003E000BB018093BA018081807629F081818130C0
:1003F00021F0893011F080E008958FEF0895A0DE9C
:1004000081E008951F93162F7CDE812F1F910895A0
:10041000F894F1DE22D02EE088E190E00FB6F89457
:10042000A89581BD0FBE21BD15D18D98959885E900
:10043000A8958150E8F737DE8D9A959A789411D176
:10044000A89536DEFCCF1F920F920FB60F921124A3
:100450000F900FBE0F901F90189585B38F7C85BBB2
:1004600084B3806384BB80E180937D0080E28093CD
:10047000800010928A001FBC1EBC1DBC1CBC1BBC93
:100480001ABC84E089BF08951EBC1DBC1CBC882317
:1004900031F410928A0085B38F7C85BB089582E089
:1004A00080938A001DBC1CBC8BE790E09BBD8ABD7D
:1004B00081E08EBD089590937F0080937E00089523
:1004C00090938200809381000895DF93CF9300D0B2
:1004D0000F92CDB7DEB760918A001EBC1DBC1CBC5C
:1004E00080E180937D0080E280938000A3E8B0E00B
:1004F000EDE7F0E083E001900D928150E1F7A6E88E
:10050000B0E0E0E8F0E083E001900D928150E1F787
:10051000209184003091850080918700909188001F
:1005200082179307E0F49E012F5F3F4FD901E3E864
:10053000F0E083E001900D928150E1F7E3E8F0E014
:10054000DF01139683E00D9001928150E1F7A6E858
:10055000B0E0F90183E001900D928150E1F7109233
:100560008900409183008091890090E0FC01EE0FAA
:10057000FF1FE80FF91FED57FF4F21813281809156
:100580008400909185002817390728F4809189000C
:100590008F5F809389008091890090E0FC01EE0FCD
:1005A000FF1FE80FF91FED57FF4F40835091860062
:1005B000542B8091890090E0FC01EE0FFF1FE80FA3
:1005C000F91FED57FF4F2181328180918700909173
:1005D00088002817390728F4809189008F5F80935D
:1005E00089008091890090E0FC01EE0FFF1FE80F69
:1005F000F91FED57FF4F5083809189008F5F8093E3
:10060000890080918900882391F020E0822F90E07A
:10061000FC01EE0FFF1FE80FF91FED57FF4F808120
:10062000809580832F5F80918900281778F3662357
:1006300019F082E080938A001DBC1CBC8BE790E01F
:100640009BBD8ABD81E08EBD0F900F900F90CF9122
:10065000DF91089585B7826085BF8BB780648BBFBB
:1006600008951F93CF93DF936091BC01635067FDA2
:1006700013C08091B901CCE0D0E0C81BD109C054AF
:10068000DE4F8091B8018D3209F462C080918B00F9
:1006900087FD84C01092BC0180916E0084FF4AC027
:1006A00060916F006F3F09F445C0693070F1685088
:1006B00060936F008091AC0198E889278093AC012A
:1006C00068E080918B0087FD8BC02091BA0130914A
:1006D000BB0186FF6DC0ADEAB1E080E090E0F901BA
:1006E000E80FF91FE491ED9301966817C1F7615087
:1006F000862F90E06F5F0196820F931F9093BB014E
:100700008093BA01162F1C5F0BC010926F0080916E
:10071000AC0198E889278093AC01662391F614E038
:100720008DEA91E0E3D01C3019F08FEF80936F00D9
:1007300010936E0094E186B3837031F49150D9F731
:100740001092BD011092B701DF91CF911F910895D2
:10075000683009F09FCF83EC8093AC018AE58093E9
:100760006E0010928B008881807659F59A811092E4
:10077000B5018981882309F043C01092B60122E0B7
:1007800085EB91E09093BB018093BA018F81882320
:1007900019F49E81921708F1922F1FC0CE012FDE0F
:1007A0008F3F51F1882309F475CF10926F0072CFFB
:1007B000962FD901EDEAF1E08D9181939150E1F707
:1007C00096CFCE0109DE282F8F3F01F7888187FD64
:1007D0002BC09FEF80E880938B0090936F005ACFDF
:1007E0008DEA91E00FDE682F893008F453C08FEF57
:1007F00080936F001EE19CCF8EE180936E004ACF04
:10080000853061F0863091F0883031F1893061F1C6
:100810008A3031F120E085EB91E0B4CF9093BD01B7
:1008200020E085EB91E0AECF9E81D4CF8B818130EB
:1008300049F18230F9F0833029F020E080E48093A0
:100840008B00A4CF992349F586E290E09093BB01F9
:100850008093BA0124E0F2CF21E08FEB91E092CFB8
:1008600021E085EB91E08ECF9093BF0120E085EBF6
:1008700091E088CF8CE590E09093BB018093BA0122
:1008800022E1DCCF8AE490E09093BB018093BA012F
:1008900022E1D4CF182F1C5F43CF913051F092301A
:1008A00061F682E390E09093BB018093BA0128E166
:1008B000C5CF8AE290E09093BB018093BA0128E013
:1008C000BDCFA82FB92F80E090E041E050EA6095BD
:1008D00030E009C02D9182279795879510F08427E5
:1008E0009527305EC8F36F5FA8F30895EADF8D9314
:1008F0009D930895CF93CFB7CF93C395B09BE9F75E
:10090000B09B09C0B09B07C0B09B05C0B09B03C0A3
:10091000B09B01C0A1C0DF93C091B901DD27C054D5
:10092000DE4FB09B02C0DF91EBCF2F930F931F934D
:1009300006B32FEF00FB20F94F933F9316B34FEF11
:10094000012700FB21F93BE031C04E7F012F16B398
:10095000216028C0102F4D7F2260000006B329C0FF
:100960004B7F2460012F000016B32BC016B3477FC6
:1009700028602AC04F7E06B320612CC04F7D16B37D
:1009800020622FC04F7B06B3206432C0422706B3DB
:1009900049934FEF0000102710FB20F916B3137096
:1009A000C9F1297F91F2012700FB21F906B3237FCA
:1009B00089F2315058F1102710FB22F916B3277E27
:1009C00079F2012700FB23F92F7C81F206B310276F
:1009D00010FB24F92F7971F200C016B3012700FB38
:1009E00025F92F7359F200C006B3102710FB26F922
:1009F000223040F200C016B3012700FB27F9243053
:100A000028F64F77206816B30000F9CF10E41ABF1C
:100A1000002717C03B503195C31BD04010E41ABFCC
:100A20000881033CE9F00B34D9F02091B70119811A
:100A3000110F1213EDCF093641F10D3211F0013EC5
:100A400039F70093BE013F914F911F910F912F9164
:100A5000DF91CAB7C6FD51CFCF91CFBFCF911895C7
:100A60002091BE01222379F31091BC01112311F5CD
:100A7000343012F13093BC012093B8011091B901C8
:100A80003BE0311B3093B90117C00091BC0101302C
:100A90008CF40AE530916E0034FD10C000936E00B6
:100AA000CCEAD1E00FC02795A8F45150A9F4220F49
:100AB0000000F9CF4AE503C042ED01C0432FC4E175
:100AC000D0E032E017B31360C09A17BB08B320E43C
:100AD00013E05F93012756E008BB279520F451509F
:100AE00021F4220FF9CF012756E000003B5A08BB42
:100AF000D0F2279528F4515029F4220F0000F9CFA5
:100B0000012756E0279508BB20F4515021F4220F0D
:100B1000F9CF012756E02991332308BB21F60C7F3A
:100B20001091BD01110FC651D04008BB11F01093B8
:100B3000B70110E41ABF016017B31C7F402F4C7F30
:100B40005F9100C000C008BB17BB48BB7CCFF894C6
:020B5000FFCFD5
:100B52006368617373697300302E312E30005AFF5F
:00000001FF
