:1000000036C0DEC24FC04EC04DC04CC04BC04AC00F
:1000100049C048C047C046C045C044C043C042C0B4
:1000200041C040C03FC00403090408037A003800FF
:1000300030001803630061006D002E00630068004B
:100040006100730073006900730012011001FF006A
:100050000008C016DD0500010102000109021200BE
:1000600001010080C8090400000000000000112404
:100070001FBECFE5D4E0DEBFCDBF10E0A0E6B0E00C
:10008000EEE1F8E002C005900D92AE36B107D9F767
:1000900011E0AEE6B0E001C01D92A63CB107E1F769
:1000A0003AD1BBC3ADCF13BE12BE85E083BF089566
:1000B00082B78436D0F080917100909172000196E1
:1000C0009093720080937100893C910550F01092DA
:1000D00072001092710010926E0010926F001092D8
:1000E000700013BE12BE85E083BF089510927200A7
:1000F0001092710010926E0010926F0010927000BA
:1001000008951092720010927100DC0120E010C07E
:10011000E0917000F0E0E458FF4F80818D93809172
:10012000700090E001968F719070809370002F5F47
:10013000261770F308951F93CF93DF93EC01162FCA
:100140008881882321F48981893009F468D010924C
:1001500072001092710080916E00882311F090E07F
:1001600004C0888180936E0091E080916E008823A6
:10017000E9F0392F18C080916E00815080936E0095
:100180008F5F11F180916F0090E0DC01A458BF4FA8
:10019000FE01E30FF11D20812C9301968F71907069
:1001A00080936F003F5F311730F30EC010927200E2
:1001B0001092710010926E0010926F0010927000F9
:1001C00089816CE770E035D0DF91CF911F91089560
:1001D00082B3877E82BB81B3886181BBA998A19AD3
:1001E0000895882311F490E001C098E082B3877FDE
:1001F000982B92BB0895882311F490E001C090E100
:1002000082B38F7E982B92BB0895882311F490E0DF
:1002100001C092E085B38D7F982B95BB089593998B
:1002200002C098E001C090E082B3877F982B92BB18
:100230000895DF93CF93CDB7DEB72B970FB6F89421
:10024000DEBF0FBECDBF9B018730A9F1883028F4F7
:100250008130B9F08230D1F505C0883081F1893024
:10026000A9F531C0DE011196E0E6F0E085E00190ED
:100270000D928150E1F789818823F1F7F90110820D
:1002800025C0DE011696E5E6F0E086E001900D92CD
:100290008150E1F7FE013696D9019E012A5E3F4F5B
:1002A00080818C938181882389F031961196E217A1
:1002B000F307B1F70BC0FB01808193DF07C0FB019F
:1002C000808199DF03C0FB0180819FDF2B960FB6F1
:1002D000F894DEBF0FBECDBFCF91DF910895FC0132
:1002E00083E790E09093AB018093AA0180818076B0
:1002F00039F08181813011F0893011F48FEF089548
:1003000080E0089518DF81E008951F93162FF9DE2D
:10031000812F1F910895F8945BDF2EE088E190E033
:100320000FB6F894A89581BD0FBE21BD14D08D984D
:10033000959826E948EB5BE004C0CA010197F1F704
:10034000A8952150D0F7AFDE8D9A959A78940AD06F
:10035000A895AEDEFCCF85B7826085BF8BB7806481
:100360008BBF08951F93CF93DF936091AC016350CF
:1003700067FDA3C08091A901CCE0D0E0C81BD109E2
:10038000C055DE4F8091A8018D3209F084C06830DD
:1003900009F091C083EC80939C018AE580936B0007
:1003A00010927B008881807639F0CE0198DF282F6B
:1003B0008F3F09F45FC065C09A811092A5018981C1
:1003C000882321F41092A60122E04DC0853019F453
:1003D0009093AD0147C08630B1F58B81813019F41F
:1003E0008AE490E004C0823041F48CE590E0909380
:1003F000AB018093AA0122E122C08330F9F48A8103
:10040000882341F486E290E09093AB018093AA01A7
:1004100024E015C0813041F48AE290E09093AB0172
:100420008093AA0128E00BC0823041F482E390E07F
:100430009093AB018093AA0128E101C020E080E401
:1004400080937B001EC0883021F421E08FEA91E088
:100450000CC0893019F49093AF0104C08A3011F4B4
:1004600021E001C020E085EA91E09093AB01809308
:10047000AA0107C0888187FD2E8180E880937B00D8
:1004800006C08F81882319F48E81821708F0822F8D
:1004900080936C0010C080917B0087FF0CC0CE0160
:1004A00031DF8F3F21F48EE180936B0004C08823FD
:1004B00011F010926C001092AC0180916B0084FFDF
:1004C00058C080916C008F3F09F453C0182F8930B9
:1004D00008F018E0811B80936C0080919C0198E8E3
:1004E000892780939C01112391F180917B0087FFE4
:1004F00008C08DE991E0612F08DF182F893098F549
:1005000026C02091AA013091AB0186FF0DC0ADE954
:10051000B1E080E090E0F901E80FF91FE491ED937C
:1005200001961817C1F708C0912FD901EDE9F1E044
:100530008D9181939150E1F71150812F90E01F5FD1
:100540000196820F931F9093AB018093AA018DE9CE
:1005500091E0612F31D0612F6C5F6C3041F08FEFF3
:1005600080936C0004C08FEF80936C006EE1609309
:100570006B0094E186B3837031F49150D9F71092F7
:10058000AD011092A701DF91CF911F910895A82F7F
:10059000B92F80E090E041E050EA609530E009C07A
:1005A0002D9182279795879510F084279527305EA7
:1005B000C8F36F5FA8F30895EADF8D939D930895C4
:1005C000CF93CFB7CF93C395B09BE9F7B09B09C04A
:1005D000B09B07C0B09B05C0B09B03C0B09B01C0DF
:1005E000A1C0DF93C091A901DD27C055DE4FB09BAC
:1005F00002C0DF91EBCF2F930F931F9306B32FEF22
:1006000000FB20F94F933F9316B34FEF012700FBF8
:1006100021F93BE031C04E7F012F16B3216028C085
:10062000102F4D7F2260000006B329C04B7F24604D
:10063000012F000016B32BC016B3477F28602AC0D5
:100640004F7E06B320612CC04F7D16B320622FC0B1
:100650004F7B06B3206432C0422706B349934FEF65
:100660000000102710FB20F916B31370C9F1297F81
:1006700091F2012700FB21F906B3237F89F2315063
:1006800058F1102710FB22F916B3277E79F20127C3
:1006900000FB23F92F7C81F206B3102710FB24F90D
:1006A0002F7971F200C016B3012700FB25F92F73D3
:1006B00059F200C006B3102710FB26F9223040F291
:1006C00000C016B3012700FB27F9243028F64F7726
:1006D000206816B30000F9CF10E41ABF002717C036
:1006E0003B503195C31BD04010E41ABF0881033C36
:1006F000E9F00B34D9F02091A7011981110F1213E1
:10070000EDCF093641F10D3211F0013E39F700937A
:10071000AE013F914F911F910F912F91DF91CAB779
:10072000C6FD51CFCF91CFBFCF9118952091AE018B
:10073000222379F31091AC01112311F5343012F119
:100740003093AC012093A8011091A9013BE0311B2B
:100750003093A90117C00091AC0101308CF40AE577
:1007600030916B0034FD10C000936B00CCE9D1E0F8
:100770000FC02795A8F45150A9F4220F0000F9CF1B
:100780004AE503C042ED01C0432FC4E1D0E032E0AE
:1007900017B31360C09A17BB08B320E413E05F934C
:1007A000012756E008BB279520F4515021F4220F71
:1007B000F9CF012756E000003B5A08BBD0F227953D
:1007C00028F4515029F4220F0000F9CF012756E0F8
:1007D000279508BB20F4515021F4220FF9CF0127AF
:1007E00056E02991332308BB21F60C7F1091AD010F
:1007F000110FC651D04008BB11F01093A70110E4AF
:100800001ABF016017B31C7F402F4C7F5F9100C05F
:0E08100000C008BB17BB48BB7CCFF894FFCFDD
:0E081E006D6F746F00302E312E30005AFF00C7
:00000001FF
