:1000000036C081C24FC04EC04DC04CC04BC04AC06C
:1000100049C048C047C046C045C044C043C042C0B4
:1000200041C040C03FC00902120001010080C80960
:10003000040000000000000012011001FF00000891
:10004000C016DD0500010102000118036300610014
:100050006D002E006300680061007300730069008A
:10006000730008037A0038003000040309041124E7
:100070001FBECFE5D4E0DEBFCDBF10E0A0E6B0E00C
:10008000E6EAF7E002C005900D92A836B107D9F76D
:1000900011E0A8E6B0E001C01D92A03CB107E1F775
:1000A0005FD37FC3ADCF13BE12BE85E083BF08957B
:1000B000109269001092680010926C0010926B0010
:1000C00010926A00089582B7843670F080916800BB
:1000D0009091690001969093690080936800893C33
:1000E000910508F0E5DFDFCF0895CF93DF93EC01B2
:1000F000109269001092680080916C00811105C017
:10010000888180936C0021E001C020E080916C0028
:100110008823E1F0261708F580916C009FEF980F77
:1001200090936C008823C9F080916B0090E0FE01F1
:10013000E20FF11D3081FC01EA58FF4F3083019638
:100140008F71992780936B002F5FE4CFB1DF66E753
:1001500070E08981DF91CF9138C0DF91CF91089510
:100160001092690010926800282FFC018E2F821BCC
:10017000861780F4A0916A00B0E0AA58BF4F8C9116
:10018000819380916A0090E001968F719927809306
:100190006A00ECCF089581B3886181BB82B382BBD2
:1001A000089592B3977F982B92BB089592B39F7E48
:1001B000982B92BB0895939B02C090E001C098E0F9
:1001C00082B3877F892B82BB0895CF93DF9300D0C2
:1001D00000D000D0CDB7DEB78230E9F068F48130CE
:1001E000F1F586E0E2E6F0E0DE01119601900D9275
:1001F0008A95E1F720E010C0873031F1883079F539
:10020000FB01808126960FB6F894DEBF0FBECDBFEE
:10021000DF91CF91CBCFFFCF822F90E0FB01E80F92
:10022000F91FA1E0B0E0AC0FBD1FA80FB91F8C9162
:1002300080832F5FE1E0F0E0EC0FFD1FE20FF11D86
:1002400080818111E9CF0BC0FB01808126960FB61A
:10025000F894DEBF0FBECDBFDF91CF91A2CF26961F
:100260000FB6F894DEBF0FBECDBFDF91CF910895DA
:10027000FC018DE690E09093A5018093A40180811C
:10028000807639F09181977F81E0913009F080E0AC
:1002900081950895CF93C62F63DF8C2FCF9108955A
:1002A00024DF81E00895CF93DF936091A60163502E
:1002B00067FDA2C08091A301CCE0D0E0C81BD109AA
:1002C000C655DE4F8091A2018D3209F084C068309E
:1002D00009F090C083EC809396018AE580936100D9
:1002E000109275008881807619F0CE01C1DF60C060
:1002F0008A8110929F019981911106C01092A001EC
:100300002FE931E082E050C0953019F48093A701C5
:100310003DC09630A9F59B81913019F488E390E0B7
:1003200004C0923041F486E290E09093A50180935E
:10033000A40182E121C09330F1F4811108C08AE662
:1003400090E09093A5018093A40184E015C08130D2
:1003500041F482E690E09093A5018093A40188E0A7
:100360000BC0823041F48AE490E09093A501809321
:10037000A40188E101C080E090E49093750018C06A
:10038000983079F0993031F48093A9012FE931E068
:1003900080E00AC081E09A3009F080E02FE931E086
:1003A00003C029EA31E081E03093A5012093A40144
:1003B0008F3F39F4988197FD8E8190E89093750076
:1003C00007C09F81911104C09E81981708F4892F5E
:1003D000809360000FC08091750087FF0BC0CE0135
:1003E0005FDF8F3F21F48EE18093610003C08111B4
:1003F000109260001092A6018091610084FF56C0A7
:10040000809160008F3F09F451C0C82F893008F0F7
:10041000C8E08C1B809360008091960198E8892742
:1004200080939601CC2389F18091750087FF08C0E5
:100430006C2F87E991E02EDFC82F893088F525C021
:100440004091A4015091A50186FF0BC0A7E9B1E03E
:10045000FA018C2F8A0F94919D9331968A13FBCFCA
:1004600009C0DA01E7E9F1E08C2F8E0F9D9191939D
:100470008E13FCCF2FEF2C0F30E02F5F3F4F240F58
:10048000351F3093A5012093A4016C2F87E991E0DB
:1004900036D0CC5FCC3041F08FEF8093600004C049
:1004A0008FEF80936000CEE1C093610084E196B34A
:1004B000937031F48150D9F71092A7011092A101E5
:1004C000DF91CF91089585B7826085BF8BB7806437
:1004D0008BBF0895A82FB92F80E090E041E050EA4B
:1004E000609530E009C02D9182279795879510F08F
:1004F00084279527305EC8F36F5FA8F30895EADF7D
:100500008D939D930895CF93CFB7CF93C395B09B11
:10051000E9F7B09B09C0B09B07C0B09B05C0B09B7A
:1005200003C0B09B01C0A1C0DF93C091A301DD2730
:10053000C655DE4FB09B02C0DF91EBCF2F930F93D8
:100540001F9306B32FEF00FB20F94F933F9316B391
:100550004FEF012700FB21F93BE031C04E7F012F17
:1005600016B3216028C0102F4D7F2260000006B313
:1005700029C04B7F2460012F000016B32BC016B397
:10058000477F28602AC04F7E06B320612CC04F7D74
:1005900016B320622FC04F7B06B3206432C04227BF
:1005A00006B349934FEF0000102710FB20F916B354
:1005B0001370C9F1297F91F2012700FB21F906B3DD
:1005C000237F89F2315058F1102710FB22F916B31E
:1005D000277E79F2012700FB23F92F7C81F206B3F5
:1005E000102710FB24F92F7971F200C016B30127F0
:1005F00000FB25F92F7359F200C006B3102710FB3A
:1006000026F9223040F200C016B3012700FB27F97B
:10061000243028F64F77206816B30000F9CF10E495
:100620001ABF002717C03B503195C31BD04010E4C0
:100630001ABF0881033CE9F00B34D9F02091A101E5
:100640001981110F1213EDCF093641F10D3211F05E
:10065000013E39F70093A8013F914F911F910F91EF
:100660002F91DF91CAB7C6FD51CFCF91CFBFCF91A8
:1006700018952091A801222379F31091A601112346
:1006800011F5343012F13093A6012093A20110919C
:10069000A3013BE0311B3093A30117C00091A601D9
:1006A00001308CF40AE53091610034FD10C00093F4
:1006B0006100C6E9D1E00FC02795A8F45150A9F414
:1006C000220F0000F9CF4AE503C042ED01C0432FDD
:1006D000C4E1D0E032E017B31360C09A17BB08B38F
:1006E00020E413E05F93012756E008BB279520F430
:1006F000515021F4220FF9CF012756E000003B5A58
:1007000008BBD0F2279528F4515029F4220F00009D
:10071000F9CF012756E0279508BB20F4515021F46A
:10072000220FF9CF012756E02991332308BB21F688
:100730000C7F1091A701110FC651D04008BB11F0DA
:100740001093A10110E41ABF016017B31C7F402F62
:100750004C7F5F9100C000C008BB17BB48BB7CCF7B
:10076000F89419DD2EE088E190E00FB6F894A89592
:1007700081BD0FBE21BDA7DE8D98959887E9815078
:1007800041F0E7EBFBE03197F1F700C00000A895DE
:10079000F6CF89DC8D9A959A789485DDA89593DCBF
:0607A000FCCFF894FFCF2E
:0807A600FF5A302E312E300005
:00000001FF
